{
	"Keccak256test.sol": {
		"HashFunc": {
			"abi": [
				{
					"inputs": [
						{
							"internalType": "string",
							"name": "text0",
							"type": "string"
						},
						{
							"internalType": "uint256",
							"name": "x",
							"type": "uint256"
						},
						{
							"internalType": "string",
							"name": "text1",
							"type": "string"
						}
					],
					"name": "collision",
					"outputs": [
						{
							"internalType": "bytes32",
							"name": "",
							"type": "bytes32"
						}
					],
					"stateMutability": "pure",
					"type": "function"
				},
				{
					"inputs": [
						{
							"internalType": "string",
							"name": "text0",
							"type": "string"
						},
						{
							"internalType": "string",
							"name": "text1",
							"type": "string"
						}
					],
					"name": "encode",
					"outputs": [
						{
							"internalType": "bytes",
							"name": "",
							"type": "bytes"
						}
					],
					"stateMutability": "pure",
					"type": "function"
				},
				{
					"inputs": [
						{
							"internalType": "string",
							"name": "text0",
							"type": "string"
						},
						{
							"internalType": "string",
							"name": "text1",
							"type": "string"
						}
					],
					"name": "encodePacked",
					"outputs": [
						{
							"internalType": "bytes",
							"name": "",
							"type": "bytes"
						}
					],
					"stateMutability": "pure",
					"type": "function"
				},
				{
					"inputs": [
						{
							"internalType": "string",
							"name": "text",
							"type": "string"
						},
						{
							"internalType": "uint256",
							"name": "num",
							"type": "uint256"
						},
						{
							"internalType": "address",
							"name": "addr",
							"type": "address"
						}
					],
					"name": "hash",
					"outputs": [
						{
							"internalType": "bytes32",
							"name": "",
							"type": "bytes32"
						}
					],
					"stateMutability": "pure",
					"type": "function"
				}
			],
			"devdoc": {
				"kind": "dev",
				"methods": {},
				"version": 1
			},
			"evm": {
				"assembly": "    /* \"Keccak256test.sol\":60:739  contract HashFunc {\r... */\n  mstore(0x40, 0x80)\n  callvalue\n  dup1\n  iszero\n  tag_1\n  jumpi\n  0x00\n  dup1\n  revert\ntag_1:\n  pop\n  dataSize(sub_0)\n  dup1\n  dataOffset(sub_0)\n  0x00\n  codecopy\n  0x00\n  return\nstop\n\nsub_0: assembly {\n        /* \"Keccak256test.sol\":60:739  contract HashFunc {\r... */\n      mstore(0x40, 0x80)\n      callvalue\n      dup1\n      iszero\n      tag_1\n      jumpi\n      0x00\n      dup1\n      revert\n    tag_1:\n      pop\n      jumpi(tag_2, lt(calldatasize, 0x04))\n      shr(0xe0, calldataload(0x00))\n      dup1\n      0x09518e1e\n      eq\n      tag_3\n      jumpi\n      dup1\n      0x17fe2da2\n      eq\n      tag_4\n      jumpi\n      dup1\n      0x5dda416e\n      eq\n      tag_5\n      jumpi\n      dup1\n      0x892e5d01\n      eq\n      tag_6\n      jumpi\n    tag_2:\n      0x00\n      dup1\n      revert\n        /* \"Keccak256test.sol\":565:736  function collision(string memory text0, uint x, string memory text1) external pure returns (bytes32) {\r... */\n    tag_3:\n      tag_7\n      0x04\n      dup1\n      calldatasize\n      sub\n      dup2\n      add\n      swap1\n      tag_8\n      swap2\n      swap1\n      tag_9\n      jump\t// in\n    tag_8:\n      tag_10\n      jump\t// in\n    tag_7:\n      mload(0x40)\n      tag_11\n      swap2\n      swap1\n      tag_12\n      jump\t// in\n    tag_11:\n      mload(0x40)\n      dup1\n      swap2\n      sub\n      swap1\n      return\n        /* \"Keccak256test.sol\":251:396  function encode(string memory text0, string memory text1) external pure returns (bytes memory) {\r... */\n    tag_4:\n      tag_13\n      0x04\n      dup1\n      calldatasize\n      sub\n      dup2\n      add\n      swap1\n      tag_14\n      swap2\n      swap1\n      tag_15\n      jump\t// in\n    tag_14:\n      tag_16\n      jump\t// in\n    tag_13:\n      mload(0x40)\n      tag_17\n      swap2\n      swap1\n      tag_18\n      jump\t// in\n    tag_17:\n      mload(0x40)\n      dup1\n      swap2\n      sub\n      swap1\n      return\n        /* \"Keccak256test.sol\":85:245  function hash(string memory text, uint num, address addr) external pure returns (bytes32) {\r... */\n    tag_5:\n      tag_19\n      0x04\n      dup1\n      calldatasize\n      sub\n      dup2\n      add\n      swap1\n      tag_20\n      swap2\n      swap1\n      tag_21\n      jump\t// in\n    tag_20:\n      tag_22\n      jump\t// in\n    tag_19:\n      mload(0x40)\n      tag_23\n      swap2\n      swap1\n      tag_12\n      jump\t// in\n    tag_23:\n      mload(0x40)\n      dup1\n      swap2\n      sub\n      swap1\n      return\n        /* \"Keccak256test.sol\":402:559  function encodePacked(string memory text0, string memory text1) external pure returns (bytes memory) {\r... */\n    tag_6:\n      tag_24\n      0x04\n      dup1\n      calldatasize\n      sub\n      dup2\n      add\n      swap1\n      tag_25\n      swap2\n      swap1\n      tag_15\n      jump\t// in\n    tag_25:\n      tag_26\n      jump\t// in\n    tag_24:\n      mload(0x40)\n      tag_27\n      swap2\n      swap1\n      tag_18\n      jump\t// in\n    tag_27:\n      mload(0x40)\n      dup1\n      swap2\n      sub\n      swap1\n      return\n        /* \"Keccak256test.sol\":565:736  function collision(string memory text0, uint x, string memory text1) external pure returns (bytes32) {\r... */\n    tag_10:\n        /* \"Keccak256test.sol\":657:664  bytes32 */\n      0x00\n        /* \"Keccak256test.sol\":711:716  text0 */\n      dup4\n        /* \"Keccak256test.sol\":718:719  x */\n      dup4\n        /* \"Keccak256test.sol\":721:726  text1 */\n      dup4\n        /* \"Keccak256test.sol\":694:727  abi.encodePacked(text0, x, text1) */\n      add(0x20, mload(0x40))\n      tag_29\n      swap4\n      swap3\n      swap2\n      swap1\n      tag_30\n      jump\t// in\n    tag_29:\n      mload(0x40)\n      0x20\n      dup2\n      dup4\n      sub\n      sub\n      dup2\n      mstore\n      swap1\n      0x40\n      mstore\n        /* \"Keccak256test.sol\":684:728  keccak256(abi.encodePacked(text0, x, text1)) */\n      dup1\n      mload\n      swap1\n      0x20\n      add\n      keccak256\n        /* \"Keccak256test.sol\":677:728  return keccak256(abi.encodePacked(text0, x, text1)) */\n      swap1\n      pop\n        /* \"Keccak256test.sol\":565:736  function collision(string memory text0, uint x, string memory text1) external pure returns (bytes32) {\r... */\n      swap4\n      swap3\n      pop\n      pop\n      pop\n      jump\t// out\n        /* \"Keccak256test.sol\":251:396  function encode(string memory text0, string memory text1) external pure returns (bytes memory) {\r... */\n    tag_16:\n        /* \"Keccak256test.sol\":332:344  bytes memory */\n      0x60\n        /* \"Keccak256test.sol\":375:380  text0 */\n      dup3\n        /* \"Keccak256test.sol\":382:387  text1 */\n      dup3\n        /* \"Keccak256test.sol\":364:388  abi.encode(text0, text1) */\n      add(0x20, mload(0x40))\n      tag_32\n      swap3\n      swap2\n      swap1\n      tag_33\n      jump\t// in\n    tag_32:\n      mload(0x40)\n      0x20\n      dup2\n      dup4\n      sub\n      sub\n      dup2\n      mstore\n      swap1\n      0x40\n      mstore\n        /* \"Keccak256test.sol\":357:388  return abi.encode(text0, text1) */\n      swap1\n      pop\n        /* \"Keccak256test.sol\":251:396  function encode(string memory text0, string memory text1) external pure returns (bytes memory) {\r... */\n      swap3\n      swap2\n      pop\n      pop\n      jump\t// out\n        /* \"Keccak256test.sol\":85:245  function hash(string memory text, uint num, address addr) external pure returns (bytes32) {\r... */\n    tag_22:\n        /* \"Keccak256test.sol\":166:173  bytes32 */\n      0x00\n        /* \"Keccak256test.sol\":220:224  text */\n      dup4\n        /* \"Keccak256test.sol\":226:229  num */\n      dup4\n        /* \"Keccak256test.sol\":231:235  addr */\n      dup4\n        /* \"Keccak256test.sol\":203:236  abi.encodePacked(text, num, addr) */\n      add(0x20, mload(0x40))\n      tag_35\n      swap4\n      swap3\n      swap2\n      swap1\n      tag_36\n      jump\t// in\n    tag_35:\n      mload(0x40)\n      0x20\n      dup2\n      dup4\n      sub\n      sub\n      dup2\n      mstore\n      swap1\n      0x40\n      mstore\n        /* \"Keccak256test.sol\":193:237  keccak256(abi.encodePacked(text, num, addr)) */\n      dup1\n      mload\n      swap1\n      0x20\n      add\n      keccak256\n        /* \"Keccak256test.sol\":186:237  return keccak256(abi.encodePacked(text, num, addr)) */\n      swap1\n      pop\n        /* \"Keccak256test.sol\":85:245  function hash(string memory text, uint num, address addr) external pure returns (bytes32) {\r... */\n      swap4\n      swap3\n      pop\n      pop\n      pop\n      jump\t// out\n        /* \"Keccak256test.sol\":402:559  function encodePacked(string memory text0, string memory text1) external pure returns (bytes memory) {\r... */\n    tag_26:\n        /* \"Keccak256test.sol\":489:501  bytes memory */\n      0x60\n        /* \"Keccak256test.sol\":538:543  text0 */\n      dup3\n        /* \"Keccak256test.sol\":545:550  text1 */\n      dup3\n        /* \"Keccak256test.sol\":521:551  abi.encodePacked(text0, text1) */\n      add(0x20, mload(0x40))\n      tag_38\n      swap3\n      swap2\n      swap1\n      tag_39\n      jump\t// in\n    tag_38:\n      mload(0x40)\n      0x20\n      dup2\n      dup4\n      sub\n      sub\n      dup2\n      mstore\n      swap1\n      0x40\n      mstore\n        /* \"Keccak256test.sol\":514:551  return abi.encodePacked(text0, text1) */\n      swap1\n      pop\n        /* \"Keccak256test.sol\":402:559  function encodePacked(string memory text0, string memory text1) external pure returns (bytes memory) {\r... */\n      swap3\n      swap2\n      pop\n      pop\n      jump\t// out\n        /* \"#utility.yul\":7:419   */\n    tag_41:\n        /* \"#utility.yul\":85:90   */\n      0x00\n        /* \"#utility.yul\":110:176   */\n      tag_43\n        /* \"#utility.yul\":126:175   */\n      tag_44\n        /* \"#utility.yul\":168:174   */\n      dup5\n        /* \"#utility.yul\":126:175   */\n      tag_45\n      jump\t// in\n    tag_44:\n        /* \"#utility.yul\":110:176   */\n      tag_46\n      jump\t// in\n    tag_43:\n        /* \"#utility.yul\":101:176   */\n      swap1\n      pop\n        /* \"#utility.yul\":199:205   */\n      dup3\n        /* \"#utility.yul\":192:197   */\n      dup2\n        /* \"#utility.yul\":185:206   */\n      mstore\n        /* \"#utility.yul\":237:241   */\n      0x20\n        /* \"#utility.yul\":230:235   */\n      dup2\n        /* \"#utility.yul\":226:242   */\n      add\n        /* \"#utility.yul\":275:278   */\n      dup5\n        /* \"#utility.yul\":266:272   */\n      dup5\n        /* \"#utility.yul\":261:264   */\n      dup5\n        /* \"#utility.yul\":257:273   */\n      add\n        /* \"#utility.yul\":254:279   */\n      gt\n        /* \"#utility.yul\":251:363   */\n      iszero\n      tag_47\n      jumpi\n        /* \"#utility.yul\":282:361   */\n      tag_48\n      tag_49\n      jump\t// in\n    tag_48:\n        /* \"#utility.yul\":251:363   */\n    tag_47:\n        /* \"#utility.yul\":372:413   */\n      tag_50\n        /* \"#utility.yul\":406:412   */\n      dup5\n        /* \"#utility.yul\":401:404   */\n      dup3\n        /* \"#utility.yul\":396:399   */\n      dup6\n        /* \"#utility.yul\":372:413   */\n      tag_51\n      jump\t// in\n    tag_50:\n        /* \"#utility.yul\":91:419   */\n      pop\n        /* \"#utility.yul\":7:419   */\n      swap4\n      swap3\n      pop\n      pop\n      pop\n      jump\t// out\n        /* \"#utility.yul\":425:564   */\n    tag_52:\n        /* \"#utility.yul\":471:476   */\n      0x00\n        /* \"#utility.yul\":509:515   */\n      dup2\n        /* \"#utility.yul\":496:516   */\n      calldataload\n        /* \"#utility.yul\":487:516   */\n      swap1\n      pop\n        /* \"#utility.yul\":525:558   */\n      tag_54\n        /* \"#utility.yul\":552:557   */\n      dup2\n        /* \"#utility.yul\":525:558   */\n      tag_55\n      jump\t// in\n    tag_54:\n        /* \"#utility.yul\":425:564   */\n      swap3\n      swap2\n      pop\n      pop\n      jump\t// out\n        /* \"#utility.yul\":584:924   */\n    tag_56:\n        /* \"#utility.yul\":640:645   */\n      0x00\n        /* \"#utility.yul\":689:692   */\n      dup3\n        /* \"#utility.yul\":682:686   */\n      0x1f\n        /* \"#utility.yul\":674:680   */\n      dup4\n        /* \"#utility.yul\":670:687   */\n      add\n        /* \"#utility.yul\":666:693   */\n      slt\n        /* \"#utility.yul\":656:778   */\n      tag_58\n      jumpi\n        /* \"#utility.yul\":697:776   */\n      tag_59\n      tag_60\n      jump\t// in\n    tag_59:\n        /* \"#utility.yul\":656:778   */\n    tag_58:\n        /* \"#utility.yul\":814:820   */\n      dup2\n        /* \"#utility.yul\":801:821   */\n      calldataload\n        /* \"#utility.yul\":839:918   */\n      tag_61\n        /* \"#utility.yul\":914:917   */\n      dup5\n        /* \"#utility.yul\":906:912   */\n      dup3\n        /* \"#utility.yul\":899:903   */\n      0x20\n        /* \"#utility.yul\":891:897   */\n      dup7\n        /* \"#utility.yul\":887:904   */\n      add\n        /* \"#utility.yul\":839:918   */\n      tag_41\n      jump\t// in\n    tag_61:\n        /* \"#utility.yul\":830:918   */\n      swap2\n      pop\n        /* \"#utility.yul\":646:924   */\n      pop\n        /* \"#utility.yul\":584:924   */\n      swap3\n      swap2\n      pop\n      pop\n      jump\t// out\n        /* \"#utility.yul\":930:1069   */\n    tag_62:\n        /* \"#utility.yul\":976:981   */\n      0x00\n        /* \"#utility.yul\":1014:1020   */\n      dup2\n        /* \"#utility.yul\":1001:1021   */\n      calldataload\n        /* \"#utility.yul\":992:1021   */\n      swap1\n      pop\n        /* \"#utility.yul\":1030:1063   */\n      tag_64\n        /* \"#utility.yul\":1057:1062   */\n      dup2\n        /* \"#utility.yul\":1030:1063   */\n      tag_65\n      jump\t// in\n    tag_64:\n        /* \"#utility.yul\":930:1069   */\n      swap3\n      swap2\n      pop\n      pop\n      jump\t// out\n        /* \"#utility.yul\":1075:1909   */\n    tag_15:\n        /* \"#utility.yul\":1163:1169   */\n      0x00\n        /* \"#utility.yul\":1171:1177   */\n      dup1\n        /* \"#utility.yul\":1220:1222   */\n      0x40\n        /* \"#utility.yul\":1208:1217   */\n      dup4\n        /* \"#utility.yul\":1199:1206   */\n      dup6\n        /* \"#utility.yul\":1195:1218   */\n      sub\n        /* \"#utility.yul\":1191:1223   */\n      slt\n        /* \"#utility.yul\":1188:1307   */\n      iszero\n      tag_67\n      jumpi\n        /* \"#utility.yul\":1226:1305   */\n      tag_68\n      tag_69\n      jump\t// in\n    tag_68:\n        /* \"#utility.yul\":1188:1307   */\n    tag_67:\n        /* \"#utility.yul\":1374:1375   */\n      0x00\n        /* \"#utility.yul\":1363:1372   */\n      dup4\n        /* \"#utility.yul\":1359:1376   */\n      add\n        /* \"#utility.yul\":1346:1377   */\n      calldataload\n        /* \"#utility.yul\":1404:1422   */\n      0xffffffffffffffff\n        /* \"#utility.yul\":1396:1402   */\n      dup2\n        /* \"#utility.yul\":1393:1423   */\n      gt\n        /* \"#utility.yul\":1390:1507   */\n      iszero\n      tag_70\n      jumpi\n        /* \"#utility.yul\":1426:1505   */\n      tag_71\n      tag_72\n      jump\t// in\n    tag_71:\n        /* \"#utility.yul\":1390:1507   */\n    tag_70:\n        /* \"#utility.yul\":1531:1594   */\n      tag_73\n        /* \"#utility.yul\":1586:1593   */\n      dup6\n        /* \"#utility.yul\":1577:1583   */\n      dup3\n        /* \"#utility.yul\":1566:1575   */\n      dup7\n        /* \"#utility.yul\":1562:1584   */\n      add\n        /* \"#utility.yul\":1531:1594   */\n      tag_56\n      jump\t// in\n    tag_73:\n        /* \"#utility.yul\":1521:1594   */\n      swap3\n      pop\n        /* \"#utility.yul\":1317:1604   */\n      pop\n        /* \"#utility.yul\":1671:1673   */\n      0x20\n        /* \"#utility.yul\":1660:1669   */\n      dup4\n        /* \"#utility.yul\":1656:1674   */\n      add\n        /* \"#utility.yul\":1643:1675   */\n      calldataload\n        /* \"#utility.yul\":1702:1720   */\n      0xffffffffffffffff\n        /* \"#utility.yul\":1694:1700   */\n      dup2\n        /* \"#utility.yul\":1691:1721   */\n      gt\n        /* \"#utility.yul\":1688:1805   */\n      iszero\n      tag_74\n      jumpi\n        /* \"#utility.yul\":1724:1803   */\n      tag_75\n      tag_72\n      jump\t// in\n    tag_75:\n        /* \"#utility.yul\":1688:1805   */\n    tag_74:\n        /* \"#utility.yul\":1829:1892   */\n      tag_76\n        /* \"#utility.yul\":1884:1891   */\n      dup6\n        /* \"#utility.yul\":1875:1881   */\n      dup3\n        /* \"#utility.yul\":1864:1873   */\n      dup7\n        /* \"#utility.yul\":1860:1882   */\n      add\n        /* \"#utility.yul\":1829:1892   */\n      tag_56\n      jump\t// in\n    tag_76:\n        /* \"#utility.yul\":1819:1892   */\n      swap2\n      pop\n        /* \"#utility.yul\":1614:1902   */\n      pop\n        /* \"#utility.yul\":1075:1909   */\n      swap3\n      pop\n      swap3\n      swap1\n      pop\n      jump\t// out\n        /* \"#utility.yul\":1915:2714   */\n    tag_21:\n        /* \"#utility.yul\":2002:2008   */\n      0x00\n        /* \"#utility.yul\":2010:2016   */\n      dup1\n        /* \"#utility.yul\":2018:2024   */\n      0x00\n        /* \"#utility.yul\":2067:2069   */\n      0x60\n        /* \"#utility.yul\":2055:2064   */\n      dup5\n        /* \"#utility.yul\":2046:2053   */\n      dup7\n        /* \"#utility.yul\":2042:2065   */\n      sub\n        /* \"#utility.yul\":2038:2070   */\n      slt\n        /* \"#utility.yul\":2035:2154   */\n      iszero\n      tag_78\n      jumpi\n        /* \"#utility.yul\":2073:2152   */\n      tag_79\n      tag_69\n      jump\t// in\n    tag_79:\n        /* \"#utility.yul\":2035:2154   */\n    tag_78:\n        /* \"#utility.yul\":2221:2222   */\n      0x00\n        /* \"#utility.yul\":2210:2219   */\n      dup5\n        /* \"#utility.yul\":2206:2223   */\n      add\n        /* \"#utility.yul\":2193:2224   */\n      calldataload\n        /* \"#utility.yul\":2251:2269   */\n      0xffffffffffffffff\n        /* \"#utility.yul\":2243:2249   */\n      dup2\n        /* \"#utility.yul\":2240:2270   */\n      gt\n        /* \"#utility.yul\":2237:2354   */\n      iszero\n      tag_80\n      jumpi\n        /* \"#utility.yul\":2273:2352   */\n      tag_81\n      tag_72\n      jump\t// in\n    tag_81:\n        /* \"#utility.yul\":2237:2354   */\n    tag_80:\n        /* \"#utility.yul\":2378:2441   */\n      tag_82\n        /* \"#utility.yul\":2433:2440   */\n      dup7\n        /* \"#utility.yul\":2424:2430   */\n      dup3\n        /* \"#utility.yul\":2413:2422   */\n      dup8\n        /* \"#utility.yul\":2409:2431   */\n      add\n        /* \"#utility.yul\":2378:2441   */\n      tag_56\n      jump\t// in\n    tag_82:\n        /* \"#utility.yul\":2368:2441   */\n      swap4\n      pop\n        /* \"#utility.yul\":2164:2451   */\n      pop\n        /* \"#utility.yul\":2490:2492   */\n      0x20\n        /* \"#utility.yul\":2516:2569   */\n      tag_83\n        /* \"#utility.yul\":2561:2568   */\n      dup7\n        /* \"#utility.yul\":2552:2558   */\n      dup3\n        /* \"#utility.yul\":2541:2550   */\n      dup8\n        /* \"#utility.yul\":2537:2559   */\n      add\n        /* \"#utility.yul\":2516:2569   */\n      tag_62\n      jump\t// in\n    tag_83:\n        /* \"#utility.yul\":2506:2569   */\n      swap3\n      pop\n        /* \"#utility.yul\":2461:2579   */\n      pop\n        /* \"#utility.yul\":2618:2620   */\n      0x40\n        /* \"#utility.yul\":2644:2697   */\n      tag_84\n        /* \"#utility.yul\":2689:2696   */\n      dup7\n        /* \"#utility.yul\":2680:2686   */\n      dup3\n        /* \"#utility.yul\":2669:2678   */\n      dup8\n        /* \"#utility.yul\":2665:2687   */\n      add\n        /* \"#utility.yul\":2644:2697   */\n      tag_52\n      jump\t// in\n    tag_84:\n        /* \"#utility.yul\":2634:2697   */\n      swap2\n      pop\n        /* \"#utility.yul\":2589:2707   */\n      pop\n        /* \"#utility.yul\":1915:2714   */\n      swap3\n      pop\n      swap3\n      pop\n      swap3\n      jump\t// out\n        /* \"#utility.yul\":2720:3699   */\n    tag_9:\n        /* \"#utility.yul\":2817:2823   */\n      0x00\n        /* \"#utility.yul\":2825:2831   */\n      dup1\n        /* \"#utility.yul\":2833:2839   */\n      0x00\n        /* \"#utility.yul\":2882:2884   */\n      0x60\n        /* \"#utility.yul\":2870:2879   */\n      dup5\n        /* \"#utility.yul\":2861:2868   */\n      dup7\n        /* \"#utility.yul\":2857:2880   */\n      sub\n        /* \"#utility.yul\":2853:2885   */\n      slt\n        /* \"#utility.yul\":2850:2969   */\n      iszero\n      tag_86\n      jumpi\n        /* \"#utility.yul\":2888:2967   */\n      tag_87\n      tag_69\n      jump\t// in\n    tag_87:\n        /* \"#utility.yul\":2850:2969   */\n    tag_86:\n        /* \"#utility.yul\":3036:3037   */\n      0x00\n        /* \"#utility.yul\":3025:3034   */\n      dup5\n        /* \"#utility.yul\":3021:3038   */\n      add\n        /* \"#utility.yul\":3008:3039   */\n      calldataload\n        /* \"#utility.yul\":3066:3084   */\n      0xffffffffffffffff\n        /* \"#utility.yul\":3058:3064   */\n      dup2\n        /* \"#utility.yul\":3055:3085   */\n      gt\n        /* \"#utility.yul\":3052:3169   */\n      iszero\n      tag_88\n      jumpi\n        /* \"#utility.yul\":3088:3167   */\n      tag_89\n      tag_72\n      jump\t// in\n    tag_89:\n        /* \"#utility.yul\":3052:3169   */\n    tag_88:\n        /* \"#utility.yul\":3193:3256   */\n      tag_90\n        /* \"#utility.yul\":3248:3255   */\n      dup7\n        /* \"#utility.yul\":3239:3245   */\n      dup3\n        /* \"#utility.yul\":3228:3237   */\n      dup8\n        /* \"#utility.yul\":3224:3246   */\n      add\n        /* \"#utility.yul\":3193:3256   */\n      tag_56\n      jump\t// in\n    tag_90:\n        /* \"#utility.yul\":3183:3256   */\n      swap4\n      pop\n        /* \"#utility.yul\":2979:3266   */\n      pop\n        /* \"#utility.yul\":3305:3307   */\n      0x20\n        /* \"#utility.yul\":3331:3384   */\n      tag_91\n        /* \"#utility.yul\":3376:3383   */\n      dup7\n        /* \"#utility.yul\":3367:3373   */\n      dup3\n        /* \"#utility.yul\":3356:3365   */\n      dup8\n        /* \"#utility.yul\":3352:3374   */\n      add\n        /* \"#utility.yul\":3331:3384   */\n      tag_62\n      jump\t// in\n    tag_91:\n        /* \"#utility.yul\":3321:3384   */\n      swap3\n      pop\n        /* \"#utility.yul\":3276:3394   */\n      pop\n        /* \"#utility.yul\":3461:3463   */\n      0x40\n        /* \"#utility.yul\":3450:3459   */\n      dup5\n        /* \"#utility.yul\":3446:3464   */\n      add\n        /* \"#utility.yul\":3433:3465   */\n      calldataload\n        /* \"#utility.yul\":3492:3510   */\n      0xffffffffffffffff\n        /* \"#utility.yul\":3484:3490   */\n      dup2\n        /* \"#utility.yul\":3481:3511   */\n      gt\n        /* \"#utility.yul\":3478:3595   */\n      iszero\n      tag_92\n      jumpi\n        /* \"#utility.yul\":3514:3593   */\n      tag_93\n      tag_72\n      jump\t// in\n    tag_93:\n        /* \"#utility.yul\":3478:3595   */\n    tag_92:\n        /* \"#utility.yul\":3619:3682   */\n      tag_94\n        /* \"#utility.yul\":3674:3681   */\n      dup7\n        /* \"#utility.yul\":3665:3671   */\n      dup3\n        /* \"#utility.yul\":3654:3663   */\n      dup8\n        /* \"#utility.yul\":3650:3672   */\n      add\n        /* \"#utility.yul\":3619:3682   */\n      tag_56\n      jump\t// in\n    tag_94:\n        /* \"#utility.yul\":3609:3682   */\n      swap2\n      pop\n        /* \"#utility.yul\":3404:3692   */\n      pop\n        /* \"#utility.yul\":2720:3699   */\n      swap3\n      pop\n      swap3\n      pop\n      swap3\n      jump\t// out\n        /* \"#utility.yul\":3705:3862   */\n    tag_95:\n        /* \"#utility.yul\":3810:3855   */\n      tag_97\n        /* \"#utility.yul\":3830:3854   */\n      tag_98\n        /* \"#utility.yul\":3848:3853   */\n      dup3\n        /* \"#utility.yul\":3830:3854   */\n      tag_99\n      jump\t// in\n    tag_98:\n        /* \"#utility.yul\":3810:3855   */\n      tag_100\n      jump\t// in\n    tag_97:\n        /* \"#utility.yul\":3805:3808   */\n      dup3\n        /* \"#utility.yul\":3798:3856   */\n      mstore\n        /* \"#utility.yul\":3705:3862   */\n      pop\n      pop\n      jump\t// out\n        /* \"#utility.yul\":3868:3986   */\n    tag_101:\n        /* \"#utility.yul\":3955:3979   */\n      tag_103\n        /* \"#utility.yul\":3973:3978   */\n      dup2\n        /* \"#utility.yul\":3955:3979   */\n      tag_104\n      jump\t// in\n    tag_103:\n        /* \"#utility.yul\":3950:3953   */\n      dup3\n        /* \"#utility.yul\":3943:3980   */\n      mstore\n        /* \"#utility.yul\":3868:3986   */\n      pop\n      pop\n      jump\t// out\n        /* \"#utility.yul\":3992:4352   */\n    tag_105:\n        /* \"#utility.yul\":4078:4081   */\n      0x00\n        /* \"#utility.yul\":4106:4144   */\n      tag_107\n        /* \"#utility.yul\":4138:4143   */\n      dup3\n        /* \"#utility.yul\":4106:4144   */\n      tag_108\n      jump\t// in\n    tag_107:\n        /* \"#utility.yul\":4160:4230   */\n      tag_109\n        /* \"#utility.yul\":4223:4229   */\n      dup2\n        /* \"#utility.yul\":4218:4221   */\n      dup6\n        /* \"#utility.yul\":4160:4230   */\n      tag_110\n      jump\t// in\n    tag_109:\n        /* \"#utility.yul\":4153:4230   */\n      swap4\n      pop\n        /* \"#utility.yul\":4239:4291   */\n      tag_111\n        /* \"#utility.yul\":4284:4290   */\n      dup2\n        /* \"#utility.yul\":4279:4282   */\n      dup6\n        /* \"#utility.yul\":4272:4276   */\n      0x20\n        /* \"#utility.yul\":4265:4270   */\n      dup7\n        /* \"#utility.yul\":4261:4277   */\n      add\n        /* \"#utility.yul\":4239:4291   */\n      tag_112\n      jump\t// in\n    tag_111:\n        /* \"#utility.yul\":4316:4345   */\n      tag_113\n        /* \"#utility.yul\":4338:4344   */\n      dup2\n        /* \"#utility.yul\":4316:4345   */\n      tag_114\n      jump\t// in\n    tag_113:\n        /* \"#utility.yul\":4311:4314   */\n      dup5\n        /* \"#utility.yul\":4307:4346   */\n      add\n        /* \"#utility.yul\":4300:4346   */\n      swap2\n      pop\n        /* \"#utility.yul\":4082:4352   */\n      pop\n        /* \"#utility.yul\":3992:4352   */\n      swap3\n      swap2\n      pop\n      pop\n      jump\t// out\n        /* \"#utility.yul\":4358:4722   */\n    tag_115:\n        /* \"#utility.yul\":4446:4449   */\n      0x00\n        /* \"#utility.yul\":4474:4513   */\n      tag_117\n        /* \"#utility.yul\":4507:4512   */\n      dup3\n        /* \"#utility.yul\":4474:4513   */\n      tag_118\n      jump\t// in\n    tag_117:\n        /* \"#utility.yul\":4529:4600   */\n      tag_119\n        /* \"#utility.yul\":4593:4599   */\n      dup2\n        /* \"#utility.yul\":4588:4591   */\n      dup6\n        /* \"#utility.yul\":4529:4600   */\n      tag_120\n      jump\t// in\n    tag_119:\n        /* \"#utility.yul\":4522:4600   */\n      swap4\n      pop\n        /* \"#utility.yul\":4609:4661   */\n      tag_121\n        /* \"#utility.yul\":4654:4660   */\n      dup2\n        /* \"#utility.yul\":4649:4652   */\n      dup6\n        /* \"#utility.yul\":4642:4646   */\n      0x20\n        /* \"#utility.yul\":4635:4640   */\n      dup7\n        /* \"#utility.yul\":4631:4647   */\n      add\n        /* \"#utility.yul\":4609:4661   */\n      tag_112\n      jump\t// in\n    tag_121:\n        /* \"#utility.yul\":4686:4715   */\n      tag_122\n        /* \"#utility.yul\":4708:4714   */\n      dup2\n        /* \"#utility.yul\":4686:4715   */\n      tag_114\n      jump\t// in\n    tag_122:\n        /* \"#utility.yul\":4681:4684   */\n      dup5\n        /* \"#utility.yul\":4677:4716   */\n      add\n        /* \"#utility.yul\":4670:4716   */\n      swap2\n      pop\n        /* \"#utility.yul\":4450:4722   */\n      pop\n        /* \"#utility.yul\":4358:4722   */\n      swap3\n      swap2\n      pop\n      pop\n      jump\t// out\n        /* \"#utility.yul\":4728:5105   */\n    tag_123:\n        /* \"#utility.yul\":4834:4837   */\n      0x00\n        /* \"#utility.yul\":4862:4901   */\n      tag_125\n        /* \"#utility.yul\":4895:4900   */\n      dup3\n        /* \"#utility.yul\":4862:4901   */\n      tag_118\n      jump\t// in\n    tag_125:\n        /* \"#utility.yul\":4917:5006   */\n      tag_126\n        /* \"#utility.yul\":4999:5005   */\n      dup2\n        /* \"#utility.yul\":4994:4997   */\n      dup6\n        /* \"#utility.yul\":4917:5006   */\n      tag_127\n      jump\t// in\n    tag_126:\n        /* \"#utility.yul\":4910:5006   */\n      swap4\n      pop\n        /* \"#utility.yul\":5015:5067   */\n      tag_128\n        /* \"#utility.yul\":5060:5066   */\n      dup2\n        /* \"#utility.yul\":5055:5058   */\n      dup6\n        /* \"#utility.yul\":5048:5052   */\n      0x20\n        /* \"#utility.yul\":5041:5046   */\n      dup7\n        /* \"#utility.yul\":5037:5053   */\n      add\n        /* \"#utility.yul\":5015:5067   */\n      tag_112\n      jump\t// in\n    tag_128:\n        /* \"#utility.yul\":5092:5098   */\n      dup1\n        /* \"#utility.yul\":5087:5090   */\n      dup5\n        /* \"#utility.yul\":5083:5099   */\n      add\n        /* \"#utility.yul\":5076:5099   */\n      swap2\n      pop\n        /* \"#utility.yul\":4838:5105   */\n      pop\n        /* \"#utility.yul\":4728:5105   */\n      swap3\n      swap2\n      pop\n      pop\n      jump\t// out\n        /* \"#utility.yul\":5111:5268   */\n    tag_129:\n        /* \"#utility.yul\":5216:5261   */\n      tag_131\n        /* \"#utility.yul\":5236:5260   */\n      tag_132\n        /* \"#utility.yul\":5254:5259   */\n      dup3\n        /* \"#utility.yul\":5236:5260   */\n      tag_133\n      jump\t// in\n    tag_132:\n        /* \"#utility.yul\":5216:5261   */\n      tag_134\n      jump\t// in\n    tag_131:\n        /* \"#utility.yul\":5211:5214   */\n      dup3\n        /* \"#utility.yul\":5204:5262   */\n      mstore\n        /* \"#utility.yul\":5111:5268   */\n      pop\n      pop\n      jump\t// out\n        /* \"#utility.yul\":5274:5709   */\n    tag_39:\n        /* \"#utility.yul\":5454:5457   */\n      0x00\n        /* \"#utility.yul\":5476:5571   */\n      tag_136\n        /* \"#utility.yul\":5567:5570   */\n      dup3\n        /* \"#utility.yul\":5558:5564   */\n      dup6\n        /* \"#utility.yul\":5476:5571   */\n      tag_123\n      jump\t// in\n    tag_136:\n        /* \"#utility.yul\":5469:5571   */\n      swap2\n      pop\n        /* \"#utility.yul\":5588:5683   */\n      tag_137\n        /* \"#utility.yul\":5679:5682   */\n      dup3\n        /* \"#utility.yul\":5670:5676   */\n      dup5\n        /* \"#utility.yul\":5588:5683   */\n      tag_123\n      jump\t// in\n    tag_137:\n        /* \"#utility.yul\":5581:5683   */\n      swap2\n      pop\n        /* \"#utility.yul\":5700:5703   */\n      dup2\n        /* \"#utility.yul\":5693:5703   */\n      swap1\n      pop\n        /* \"#utility.yul\":5274:5709   */\n      swap4\n      swap3\n      pop\n      pop\n      pop\n      jump\t// out\n        /* \"#utility.yul\":5715:6272   */\n    tag_36:\n        /* \"#utility.yul\":5903:5906   */\n      0x00\n        /* \"#utility.yul\":5925:6020   */\n      tag_139\n        /* \"#utility.yul\":6016:6019   */\n      dup3\n        /* \"#utility.yul\":6007:6013   */\n      dup7\n        /* \"#utility.yul\":5925:6020   */\n      tag_123\n      jump\t// in\n    tag_139:\n        /* \"#utility.yul\":5918:6020   */\n      swap2\n      pop\n        /* \"#utility.yul\":6030:6105   */\n      tag_140\n        /* \"#utility.yul\":6101:6104   */\n      dup3\n        /* \"#utility.yul\":6092:6098   */\n      dup6\n        /* \"#utility.yul\":6030:6105   */\n      tag_129\n      jump\t// in\n    tag_140:\n        /* \"#utility.yul\":6130:6132   */\n      0x20\n        /* \"#utility.yul\":6125:6128   */\n      dup3\n        /* \"#utility.yul\":6121:6133   */\n      add\n        /* \"#utility.yul\":6114:6133   */\n      swap2\n      pop\n        /* \"#utility.yul\":6143:6218   */\n      tag_141\n        /* \"#utility.yul\":6214:6217   */\n      dup3\n        /* \"#utility.yul\":6205:6211   */\n      dup5\n        /* \"#utility.yul\":6143:6218   */\n      tag_95\n      jump\t// in\n    tag_141:\n        /* \"#utility.yul\":6243:6245   */\n      0x14\n        /* \"#utility.yul\":6238:6241   */\n      dup3\n        /* \"#utility.yul\":6234:6246   */\n      add\n        /* \"#utility.yul\":6227:6246   */\n      swap2\n      pop\n        /* \"#utility.yul\":6263:6266   */\n      dup2\n        /* \"#utility.yul\":6256:6266   */\n      swap1\n      pop\n        /* \"#utility.yul\":5715:6272   */\n      swap5\n      swap4\n      pop\n      pop\n      pop\n      pop\n      jump\t// out\n        /* \"#utility.yul\":6278:6854   */\n    tag_30:\n        /* \"#utility.yul\":6486:6489   */\n      0x00\n        /* \"#utility.yul\":6508:6603   */\n      tag_143\n        /* \"#utility.yul\":6599:6602   */\n      dup3\n        /* \"#utility.yul\":6590:6596   */\n      dup7\n        /* \"#utility.yul\":6508:6603   */\n      tag_123\n      jump\t// in\n    tag_143:\n        /* \"#utility.yul\":6501:6603   */\n      swap2\n      pop\n        /* \"#utility.yul\":6613:6688   */\n      tag_144\n        /* \"#utility.yul\":6684:6687   */\n      dup3\n        /* \"#utility.yul\":6675:6681   */\n      dup6\n        /* \"#utility.yul\":6613:6688   */\n      tag_129\n      jump\t// in\n    tag_144:\n        /* \"#utility.yul\":6713:6715   */\n      0x20\n        /* \"#utility.yul\":6708:6711   */\n      dup3\n        /* \"#utility.yul\":6704:6716   */\n      add\n        /* \"#utility.yul\":6697:6716   */\n      swap2\n      pop\n        /* \"#utility.yul\":6733:6828   */\n      tag_145\n        /* \"#utility.yul\":6824:6827   */\n      dup3\n        /* \"#utility.yul\":6815:6821   */\n      dup5\n        /* \"#utility.yul\":6733:6828   */\n      tag_123\n      jump\t// in\n    tag_145:\n        /* \"#utility.yul\":6726:6828   */\n      swap2\n      pop\n        /* \"#utility.yul\":6845:6848   */\n      dup2\n        /* \"#utility.yul\":6838:6848   */\n      swap1\n      pop\n        /* \"#utility.yul\":6278:6854   */\n      swap5\n      swap4\n      pop\n      pop\n      pop\n      pop\n      jump\t// out\n        /* \"#utility.yul\":6860:7082   */\n    tag_12:\n        /* \"#utility.yul\":6953:6957   */\n      0x00\n        /* \"#utility.yul\":6991:6993   */\n      0x20\n        /* \"#utility.yul\":6980:6989   */\n      dup3\n        /* \"#utility.yul\":6976:6994   */\n      add\n        /* \"#utility.yul\":6968:6994   */\n      swap1\n      pop\n        /* \"#utility.yul\":7004:7075   */\n      tag_147\n        /* \"#utility.yul\":7072:7073   */\n      0x00\n        /* \"#utility.yul\":7061:7070   */\n      dup4\n        /* \"#utility.yul\":7057:7074   */\n      add\n        /* \"#utility.yul\":7048:7054   */\n      dup5\n        /* \"#utility.yul\":7004:7075   */\n      tag_101\n      jump\t// in\n    tag_147:\n        /* \"#utility.yul\":6860:7082   */\n      swap3\n      swap2\n      pop\n      pop\n      jump\t// out\n        /* \"#utility.yul\":7088:7397   */\n    tag_18:\n        /* \"#utility.yul\":7199:7203   */\n      0x00\n        /* \"#utility.yul\":7237:7239   */\n      0x20\n        /* \"#utility.yul\":7226:7235   */\n      dup3\n        /* \"#utility.yul\":7222:7240   */\n      add\n        /* \"#utility.yul\":7214:7240   */\n      swap1\n      pop\n        /* \"#utility.yul\":7286:7295   */\n      dup2\n        /* \"#utility.yul\":7280:7284   */\n      dup2\n        /* \"#utility.yul\":7276:7296   */\n      sub\n        /* \"#utility.yul\":7272:7273   */\n      0x00\n        /* \"#utility.yul\":7261:7270   */\n      dup4\n        /* \"#utility.yul\":7257:7274   */\n      add\n        /* \"#utility.yul\":7250:7297   */\n      mstore\n        /* \"#utility.yul\":7314:7390   */\n      tag_149\n        /* \"#utility.yul\":7385:7389   */\n      dup2\n        /* \"#utility.yul\":7376:7382   */\n      dup5\n        /* \"#utility.yul\":7314:7390   */\n      tag_105\n      jump\t// in\n    tag_149:\n        /* \"#utility.yul\":7306:7390   */\n      swap1\n      pop\n        /* \"#utility.yul\":7088:7397   */\n      swap3\n      swap2\n      pop\n      pop\n      jump\t// out\n        /* \"#utility.yul\":7403:7917   */\n    tag_33:\n        /* \"#utility.yul\":7564:7568   */\n      0x00\n        /* \"#utility.yul\":7602:7604   */\n      0x40\n        /* \"#utility.yul\":7591:7600   */\n      dup3\n        /* \"#utility.yul\":7587:7605   */\n      add\n        /* \"#utility.yul\":7579:7605   */\n      swap1\n      pop\n        /* \"#utility.yul\":7651:7660   */\n      dup2\n        /* \"#utility.yul\":7645:7649   */\n      dup2\n        /* \"#utility.yul\":7641:7661   */\n      sub\n        /* \"#utility.yul\":7637:7638   */\n      0x00\n        /* \"#utility.yul\":7626:7635   */\n      dup4\n        /* \"#utility.yul\":7622:7639   */\n      add\n        /* \"#utility.yul\":7615:7662   */\n      mstore\n        /* \"#utility.yul\":7679:7757   */\n      tag_151\n        /* \"#utility.yul\":7752:7756   */\n      dup2\n        /* \"#utility.yul\":7743:7749   */\n      dup6\n        /* \"#utility.yul\":7679:7757   */\n      tag_115\n      jump\t// in\n    tag_151:\n        /* \"#utility.yul\":7671:7757   */\n      swap1\n      pop\n        /* \"#utility.yul\":7804:7813   */\n      dup2\n        /* \"#utility.yul\":7798:7802   */\n      dup2\n        /* \"#utility.yul\":7794:7814   */\n      sub\n        /* \"#utility.yul\":7789:7791   */\n      0x20\n        /* \"#utility.yul\":7778:7787   */\n      dup4\n        /* \"#utility.yul\":7774:7792   */\n      add\n        /* \"#utility.yul\":7767:7815   */\n      mstore\n        /* \"#utility.yul\":7832:7910   */\n      tag_152\n        /* \"#utility.yul\":7905:7909   */\n      dup2\n        /* \"#utility.yul\":7896:7902   */\n      dup5\n        /* \"#utility.yul\":7832:7910   */\n      tag_115\n      jump\t// in\n    tag_152:\n        /* \"#utility.yul\":7824:7910   */\n      swap1\n      pop\n        /* \"#utility.yul\":7403:7917   */\n      swap4\n      swap3\n      pop\n      pop\n      pop\n      jump\t// out\n        /* \"#utility.yul\":7923:8052   */\n    tag_46:\n        /* \"#utility.yul\":7957:7963   */\n      0x00\n        /* \"#utility.yul\":7984:8004   */\n      tag_154\n      tag_155\n      jump\t// in\n    tag_154:\n        /* \"#utility.yul\":7974:8004   */\n      swap1\n      pop\n        /* \"#utility.yul\":8013:8046   */\n      tag_156\n        /* \"#utility.yul\":8041:8045   */\n      dup3\n        /* \"#utility.yul\":8033:8039   */\n      dup3\n        /* \"#utility.yul\":8013:8046   */\n      tag_157\n      jump\t// in\n    tag_156:\n        /* \"#utility.yul\":7923:8052   */\n      swap2\n      swap1\n      pop\n      jump\t// out\n        /* \"#utility.yul\":8058:8133   */\n    tag_155:\n        /* \"#utility.yul\":8091:8097   */\n      0x00\n        /* \"#utility.yul\":8124:8126   */\n      0x40\n        /* \"#utility.yul\":8118:8127   */\n      mload\n        /* \"#utility.yul\":8108:8127   */\n      swap1\n      pop\n        /* \"#utility.yul\":8058:8133   */\n      swap1\n      jump\t// out\n        /* \"#utility.yul\":8139:8447   */\n    tag_45:\n        /* \"#utility.yul\":8201:8205   */\n      0x00\n        /* \"#utility.yul\":8291:8309   */\n      0xffffffffffffffff\n        /* \"#utility.yul\":8283:8289   */\n      dup3\n        /* \"#utility.yul\":8280:8310   */\n      gt\n        /* \"#utility.yul\":8277:8333   */\n      iszero\n      tag_160\n      jumpi\n        /* \"#utility.yul\":8313:8331   */\n      tag_161\n      tag_162\n      jump\t// in\n    tag_161:\n        /* \"#utility.yul\":8277:8333   */\n    tag_160:\n        /* \"#utility.yul\":8351:8380   */\n      tag_163\n        /* \"#utility.yul\":8373:8379   */\n      dup3\n        /* \"#utility.yul\":8351:8380   */\n      tag_114\n      jump\t// in\n    tag_163:\n        /* \"#utility.yul\":8343:8380   */\n      swap1\n      pop\n        /* \"#utility.yul\":8435:8439   */\n      0x20\n        /* \"#utility.yul\":8429:8433   */\n      dup2\n        /* \"#utility.yul\":8425:8440   */\n      add\n        /* \"#utility.yul\":8417:8440   */\n      swap1\n      pop\n        /* \"#utility.yul\":8139:8447   */\n      swap2\n      swap1\n      pop\n      jump\t// out\n        /* \"#utility.yul\":8453:8551   */\n    tag_108:\n        /* \"#utility.yul\":8504:8510   */\n      0x00\n        /* \"#utility.yul\":8538:8543   */\n      dup2\n        /* \"#utility.yul\":8532:8544   */\n      mload\n        /* \"#utility.yul\":8522:8544   */\n      swap1\n      pop\n        /* \"#utility.yul\":8453:8551   */\n      swap2\n      swap1\n      pop\n      jump\t// out\n        /* \"#utility.yul\":8557:8656   */\n    tag_118:\n        /* \"#utility.yul\":8609:8615   */\n      0x00\n        /* \"#utility.yul\":8643:8648   */\n      dup2\n        /* \"#utility.yul\":8637:8649   */\n      mload\n        /* \"#utility.yul\":8627:8649   */\n      swap1\n      pop\n        /* \"#utility.yul\":8557:8656   */\n      swap2\n      swap1\n      pop\n      jump\t// out\n        /* \"#utility.yul\":8662:8830   */\n    tag_110:\n        /* \"#utility.yul\":8745:8756   */\n      0x00\n        /* \"#utility.yul\":8779:8785   */\n      dup3\n        /* \"#utility.yul\":8774:8777   */\n      dup3\n        /* \"#utility.yul\":8767:8786   */\n      mstore\n        /* \"#utility.yul\":8819:8823   */\n      0x20\n        /* \"#utility.yul\":8814:8817   */\n      dup3\n        /* \"#utility.yul\":8810:8824   */\n      add\n        /* \"#utility.yul\":8795:8824   */\n      swap1\n      pop\n        /* \"#utility.yul\":8662:8830   */\n      swap3\n      swap2\n      pop\n      pop\n      jump\t// out\n        /* \"#utility.yul\":8836:9005   */\n    tag_120:\n        /* \"#utility.yul\":8920:8931   */\n      0x00\n        /* \"#utility.yul\":8954:8960   */\n      dup3\n        /* \"#utility.yul\":8949:8952   */\n      dup3\n        /* \"#utility.yul\":8942:8961   */\n      mstore\n        /* \"#utility.yul\":8994:8998   */\n      0x20\n        /* \"#utility.yul\":8989:8992   */\n      dup3\n        /* \"#utility.yul\":8985:8999   */\n      add\n        /* \"#utility.yul\":8970:8999   */\n      swap1\n      pop\n        /* \"#utility.yul\":8836:9005   */\n      swap3\n      swap2\n      pop\n      pop\n      jump\t// out\n        /* \"#utility.yul\":9011:9159   */\n    tag_127:\n        /* \"#utility.yul\":9113:9124   */\n      0x00\n        /* \"#utility.yul\":9150:9153   */\n      dup2\n        /* \"#utility.yul\":9135:9153   */\n      swap1\n      pop\n        /* \"#utility.yul\":9011:9159   */\n      swap3\n      swap2\n      pop\n      pop\n      jump\t// out\n        /* \"#utility.yul\":9165:9261   */\n    tag_99:\n        /* \"#utility.yul\":9202:9209   */\n      0x00\n        /* \"#utility.yul\":9231:9255   */\n      tag_170\n        /* \"#utility.yul\":9249:9254   */\n      dup3\n        /* \"#utility.yul\":9231:9255   */\n      tag_171\n      jump\t// in\n    tag_170:\n        /* \"#utility.yul\":9220:9255   */\n      swap1\n      pop\n        /* \"#utility.yul\":9165:9261   */\n      swap2\n      swap1\n      pop\n      jump\t// out\n        /* \"#utility.yul\":9267:9344   */\n    tag_104:\n        /* \"#utility.yul\":9304:9311   */\n      0x00\n        /* \"#utility.yul\":9333:9338   */\n      dup2\n        /* \"#utility.yul\":9322:9338   */\n      swap1\n      pop\n        /* \"#utility.yul\":9267:9344   */\n      swap2\n      swap1\n      pop\n      jump\t// out\n        /* \"#utility.yul\":9350:9476   */\n    tag_171:\n        /* \"#utility.yul\":9387:9394   */\n      0x00\n        /* \"#utility.yul\":9427:9469   */\n      0xffffffffffffffffffffffffffffffffffffffff\n        /* \"#utility.yul\":9420:9425   */\n      dup3\n        /* \"#utility.yul\":9416:9470   */\n      and\n        /* \"#utility.yul\":9405:9470   */\n      swap1\n      pop\n        /* \"#utility.yul\":9350:9476   */\n      swap2\n      swap1\n      pop\n      jump\t// out\n        /* \"#utility.yul\":9482:9559   */\n    tag_133:\n        /* \"#utility.yul\":9519:9526   */\n      0x00\n        /* \"#utility.yul\":9548:9553   */\n      dup2\n        /* \"#utility.yul\":9537:9553   */\n      swap1\n      pop\n        /* \"#utility.yul\":9482:9559   */\n      swap2\n      swap1\n      pop\n      jump\t// out\n        /* \"#utility.yul\":9565:9719   */\n    tag_51:\n        /* \"#utility.yul\":9649:9655   */\n      dup3\n        /* \"#utility.yul\":9644:9647   */\n      dup2\n        /* \"#utility.yul\":9639:9642   */\n      dup4\n        /* \"#utility.yul\":9626:9656   */\n      calldatacopy\n        /* \"#utility.yul\":9711:9712   */\n      0x00\n        /* \"#utility.yul\":9702:9708   */\n      dup4\n        /* \"#utility.yul\":9697:9700   */\n      dup4\n        /* \"#utility.yul\":9693:9709   */\n      add\n        /* \"#utility.yul\":9686:9713   */\n      mstore\n        /* \"#utility.yul\":9565:9719   */\n      pop\n      pop\n      pop\n      jump\t// out\n        /* \"#utility.yul\":9725:10032   */\n    tag_112:\n        /* \"#utility.yul\":9793:9794   */\n      0x00\n        /* \"#utility.yul\":9803:9916   */\n    tag_177:\n        /* \"#utility.yul\":9817:9823   */\n      dup4\n        /* \"#utility.yul\":9814:9815   */\n      dup2\n        /* \"#utility.yul\":9811:9824   */\n      lt\n        /* \"#utility.yul\":9803:9916   */\n      iszero\n      tag_179\n      jumpi\n        /* \"#utility.yul\":9902:9903   */\n      dup1\n        /* \"#utility.yul\":9897:9900   */\n      dup3\n        /* \"#utility.yul\":9893:9904   */\n      add\n        /* \"#utility.yul\":9887:9905   */\n      mload\n        /* \"#utility.yul\":9883:9884   */\n      dup2\n        /* \"#utility.yul\":9878:9881   */\n      dup5\n        /* \"#utility.yul\":9874:9885   */\n      add\n        /* \"#utility.yul\":9867:9906   */\n      mstore\n        /* \"#utility.yul\":9839:9841   */\n      0x20\n        /* \"#utility.yul\":9836:9837   */\n      dup2\n        /* \"#utility.yul\":9832:9842   */\n      add\n        /* \"#utility.yul\":9827:9842   */\n      swap1\n      pop\n        /* \"#utility.yul\":9803:9916   */\n      jump(tag_177)\n    tag_179:\n        /* \"#utility.yul\":9934:9940   */\n      dup4\n        /* \"#utility.yul\":9931:9932   */\n      dup2\n        /* \"#utility.yul\":9928:9941   */\n      gt\n        /* \"#utility.yul\":9925:10026   */\n      iszero\n      tag_180\n      jumpi\n        /* \"#utility.yul\":10014:10015   */\n      0x00\n        /* \"#utility.yul\":10005:10011   */\n      dup5\n        /* \"#utility.yul\":10000:10003   */\n      dup5\n        /* \"#utility.yul\":9996:10012   */\n      add\n        /* \"#utility.yul\":9989:10016   */\n      mstore\n        /* \"#utility.yul\":9925:10026   */\n    tag_180:\n        /* \"#utility.yul\":9774:10032   */\n      pop\n        /* \"#utility.yul\":9725:10032   */\n      pop\n      pop\n      pop\n      jump\t// out\n        /* \"#utility.yul\":10038:10319   */\n    tag_157:\n        /* \"#utility.yul\":10121:10148   */\n      tag_182\n        /* \"#utility.yul\":10143:10147   */\n      dup3\n        /* \"#utility.yul\":10121:10148   */\n      tag_114\n      jump\t// in\n    tag_182:\n        /* \"#utility.yul\":10113:10119   */\n      dup2\n        /* \"#utility.yul\":10109:10149   */\n      add\n        /* \"#utility.yul\":10251:10257   */\n      dup2\n        /* \"#utility.yul\":10239:10249   */\n      dup2\n        /* \"#utility.yul\":10236:10258   */\n      lt\n        /* \"#utility.yul\":10215:10233   */\n      0xffffffffffffffff\n        /* \"#utility.yul\":10203:10213   */\n      dup3\n        /* \"#utility.yul\":10200:10234   */\n      gt\n        /* \"#utility.yul\":10197:10259   */\n      or\n        /* \"#utility.yul\":10194:10282   */\n      iszero\n      tag_183\n      jumpi\n        /* \"#utility.yul\":10262:10280   */\n      tag_184\n      tag_162\n      jump\t// in\n    tag_184:\n        /* \"#utility.yul\":10194:10282   */\n    tag_183:\n        /* \"#utility.yul\":10302:10312   */\n      dup1\n        /* \"#utility.yul\":10298:10300   */\n      0x40\n        /* \"#utility.yul\":10291:10313   */\n      mstore\n        /* \"#utility.yul\":10081:10319   */\n      pop\n        /* \"#utility.yul\":10038:10319   */\n      pop\n      pop\n      jump\t// out\n        /* \"#utility.yul\":10325:10425   */\n    tag_100:\n        /* \"#utility.yul\":10364:10371   */\n      0x00\n        /* \"#utility.yul\":10393:10419   */\n      tag_186\n        /* \"#utility.yul\":10413:10418   */\n      dup3\n        /* \"#utility.yul\":10393:10419   */\n      tag_187\n      jump\t// in\n    tag_186:\n        /* \"#utility.yul\":10382:10419   */\n      swap1\n      pop\n        /* \"#utility.yul\":10325:10425   */\n      swap2\n      swap1\n      pop\n      jump\t// out\n        /* \"#utility.yul\":10431:10525   */\n    tag_187:\n        /* \"#utility.yul\":10470:10477   */\n      0x00\n        /* \"#utility.yul\":10499:10519   */\n      tag_189\n        /* \"#utility.yul\":10513:10518   */\n      dup3\n        /* \"#utility.yul\":10499:10519   */\n      tag_190\n      jump\t// in\n    tag_189:\n        /* \"#utility.yul\":10488:10519   */\n      swap1\n      pop\n        /* \"#utility.yul\":10431:10525   */\n      swap2\n      swap1\n      pop\n      jump\t// out\n        /* \"#utility.yul\":10531:10610   */\n    tag_134:\n        /* \"#utility.yul\":10570:10577   */\n      0x00\n        /* \"#utility.yul\":10599:10604   */\n      dup2\n        /* \"#utility.yul\":10588:10604   */\n      swap1\n      pop\n        /* \"#utility.yul\":10531:10610   */\n      swap2\n      swap1\n      pop\n      jump\t// out\n        /* \"#utility.yul\":10616:10796   */\n    tag_162:\n        /* \"#utility.yul\":10664:10741   */\n      0x4e487b7100000000000000000000000000000000000000000000000000000000\n        /* \"#utility.yul\":10661:10662   */\n      0x00\n        /* \"#utility.yul\":10654:10742   */\n      mstore\n        /* \"#utility.yul\":10761:10765   */\n      0x41\n        /* \"#utility.yul\":10758:10759   */\n      0x04\n        /* \"#utility.yul\":10751:10766   */\n      mstore\n        /* \"#utility.yul\":10785:10789   */\n      0x24\n        /* \"#utility.yul\":10782:10783   */\n      0x00\n        /* \"#utility.yul\":10775:10790   */\n      revert\n        /* \"#utility.yul\":10802:10919   */\n    tag_60:\n        /* \"#utility.yul\":10911:10912   */\n      0x00\n        /* \"#utility.yul\":10908:10909   */\n      dup1\n        /* \"#utility.yul\":10901:10913   */\n      revert\n        /* \"#utility.yul\":10925:11042   */\n    tag_49:\n        /* \"#utility.yul\":11034:11035   */\n      0x00\n        /* \"#utility.yul\":11031:11032   */\n      dup1\n        /* \"#utility.yul\":11024:11036   */\n      revert\n        /* \"#utility.yul\":11048:11165   */\n    tag_72:\n        /* \"#utility.yul\":11157:11158   */\n      0x00\n        /* \"#utility.yul\":11154:11155   */\n      dup1\n        /* \"#utility.yul\":11147:11159   */\n      revert\n        /* \"#utility.yul\":11171:11288   */\n    tag_69:\n        /* \"#utility.yul\":11280:11281   */\n      0x00\n        /* \"#utility.yul\":11277:11278   */\n      dup1\n        /* \"#utility.yul\":11270:11282   */\n      revert\n        /* \"#utility.yul\":11294:11396   */\n    tag_114:\n        /* \"#utility.yul\":11335:11341   */\n      0x00\n        /* \"#utility.yul\":11386:11388   */\n      0x1f\n        /* \"#utility.yul\":11382:11389   */\n      not\n        /* \"#utility.yul\":11377:11379   */\n      0x1f\n        /* \"#utility.yul\":11370:11375   */\n      dup4\n        /* \"#utility.yul\":11366:11380   */\n      add\n        /* \"#utility.yul\":11362:11390   */\n      and\n        /* \"#utility.yul\":11352:11390   */\n      swap1\n      pop\n        /* \"#utility.yul\":11294:11396   */\n      swap2\n      swap1\n      pop\n      jump\t// out\n        /* \"#utility.yul\":11402:11496   */\n    tag_190:\n        /* \"#utility.yul\":11435:11443   */\n      0x00\n        /* \"#utility.yul\":11483:11488   */\n      dup2\n        /* \"#utility.yul\":11479:11481   */\n      0x60\n        /* \"#utility.yul\":11475:11489   */\n      shl\n        /* \"#utility.yul\":11454:11489   */\n      swap1\n      pop\n        /* \"#utility.yul\":11402:11496   */\n      swap2\n      swap1\n      pop\n      jump\t// out\n        /* \"#utility.yul\":11502:11624   */\n    tag_55:\n        /* \"#utility.yul\":11575:11599   */\n      tag_200\n        /* \"#utility.yul\":11593:11598   */\n      dup2\n        /* \"#utility.yul\":11575:11599   */\n      tag_99\n      jump\t// in\n    tag_200:\n        /* \"#utility.yul\":11568:11573   */\n      dup2\n        /* \"#utility.yul\":11565:11600   */\n      eq\n        /* \"#utility.yul\":11555:11618   */\n      tag_201\n      jumpi\n        /* \"#utility.yul\":11614:11615   */\n      0x00\n        /* \"#utility.yul\":11611:11612   */\n      dup1\n        /* \"#utility.yul\":11604:11616   */\n      revert\n        /* \"#utility.yul\":11555:11618   */\n    tag_201:\n        /* \"#utility.yul\":11502:11624   */\n      pop\n      jump\t// out\n        /* \"#utility.yul\":11630:11752   */\n    tag_65:\n        /* \"#utility.yul\":11703:11727   */\n      tag_203\n        /* \"#utility.yul\":11721:11726   */\n      dup2\n        /* \"#utility.yul\":11703:11727   */\n      tag_133\n      jump\t// in\n    tag_203:\n        /* \"#utility.yul\":11696:11701   */\n      dup2\n        /* \"#utility.yul\":11693:11728   */\n      eq\n        /* \"#utility.yul\":11683:11746   */\n      tag_204\n      jumpi\n        /* \"#utility.yul\":11742:11743   */\n      0x00\n        /* \"#utility.yul\":11739:11740   */\n      dup1\n        /* \"#utility.yul\":11732:11744   */\n      revert\n        /* \"#utility.yul\":11683:11746   */\n    tag_204:\n        /* \"#utility.yul\":11630:11752   */\n      pop\n      jump\t// out\n\n    auxdata: 0xa264697066735822122066d8c2b4cf685124a9d0bebca82bfa571c2ead2e840d96eb60a89598ac50853b64736f6c63430008070033\n}\n",
				"bytecode": {
					"linkReferences": {},
					"object": "608060405234801561001057600080fd5b5061080c806100206000396000f3fe608060405234801561001057600080fd5b506004361061004c5760003560e01c806309518e1e1461005157806317fe2da2146100815780635dda416e146100b1578063892e5d01146100e1575b600080fd5b61006b60048036038101906100669190610356565b610111565b6040516100789190610553565b60405180910390f35b61009b6004803603810190610096919061026f565b610147565b6040516100a8919061056e565b60405180910390f35b6100cb60048036038101906100c691906102e7565b610173565b6040516100d89190610553565b60405180910390f35b6100fb60048036038101906100f6919061026f565b6101a9565b604051610108919061056e565b60405180910390f35b60008383836040516020016101289392919061051e565b6040516020818303038152906040528051906020012090509392505050565b6060828260405160200161015c929190610590565b604051602081830303815290604052905092915050565b600083838360405160200161018a939291906104e5565b6040516020818303038152906040528051906020012090509392505050565b606082826040516020016101be9291906104c1565b604051602081830303815290604052905092915050565b60006101e86101e3846105ec565b6105c7565b9050828152602081018484840111156102045761020361077b565b5b61020f8482856106a6565b509392505050565b600081359050610226816107a8565b92915050565b600082601f83011261024157610240610776565b5b81356102518482602086016101d5565b91505092915050565b600081359050610269816107bf565b92915050565b6000806040838503121561028657610285610785565b5b600083013567ffffffffffffffff8111156102a4576102a3610780565b5b6102b08582860161022c565b925050602083013567ffffffffffffffff8111156102d1576102d0610780565b5b6102dd8582860161022c565b9150509250929050565b600080600060608486031215610300576102ff610785565b5b600084013567ffffffffffffffff81111561031e5761031d610780565b5b61032a8682870161022c565b935050602061033b8682870161025a565b925050604061034c86828701610217565b9150509250925092565b60008060006060848603121561036f5761036e610785565b5b600084013567ffffffffffffffff81111561038d5761038c610780565b5b6103998682870161022c565b93505060206103aa8682870161025a565b925050604084013567ffffffffffffffff8111156103cb576103ca610780565b5b6103d78682870161022c565b9150509250925092565b6103f26103ed82610660565b610719565b82525050565b61040181610672565b82525050565b60006104128261061d565b61041c8185610633565b935061042c8185602086016106b5565b6104358161078a565b840191505092915050565b600061044b82610628565b6104558185610644565b93506104658185602086016106b5565b61046e8161078a565b840191505092915050565b600061048482610628565b61048e8185610655565b935061049e8185602086016106b5565b80840191505092915050565b6104bb6104b68261069c565b61073d565b82525050565b60006104cd8285610479565b91506104d98284610479565b91508190509392505050565b60006104f18286610479565b91506104fd82856104aa565b60208201915061050d82846103e1565b601482019150819050949350505050565b600061052a8286610479565b915061053682856104aa565b6020820191506105468284610479565b9150819050949350505050565b600060208201905061056860008301846103f8565b92915050565b600060208201905081810360008301526105888184610407565b905092915050565b600060408201905081810360008301526105aa8185610440565b905081810360208301526105be8184610440565b90509392505050565b60006105d16105e2565b90506105dd82826106e8565b919050565b6000604051905090565b600067ffffffffffffffff82111561060757610606610747565b5b6106108261078a565b9050602081019050919050565b600081519050919050565b600081519050919050565b600082825260208201905092915050565b600082825260208201905092915050565b600081905092915050565b600061066b8261067c565b9050919050565b6000819050919050565b600073ffffffffffffffffffffffffffffffffffffffff82169050919050565b6000819050919050565b82818337600083830152505050565b60005b838110156106d35780820151818401526020810190506106b8565b838111156106e2576000848401525b50505050565b6106f18261078a565b810181811067ffffffffffffffff821117156107105761070f610747565b5b80604052505050565b60006107248261072b565b9050919050565b60006107368261079b565b9050919050565b6000819050919050565b7f4e487b7100000000000000000000000000000000000000000000000000000000600052604160045260246000fd5b600080fd5b600080fd5b600080fd5b600080fd5b6000601f19601f8301169050919050565b60008160601b9050919050565b6107b181610660565b81146107bc57600080fd5b50565b6107c88161069c565b81146107d357600080fd5b5056fea264697066735822122066d8c2b4cf685124a9d0bebca82bfa571c2ead2e840d96eb60a89598ac50853b64736f6c63430008070033",
					"opcodes": "PUSH1 0x80 PUSH1 0x40 MSTORE CALLVALUE DUP1 ISZERO PUSH2 0x10 JUMPI PUSH1 0x0 DUP1 REVERT JUMPDEST POP PUSH2 0x80C DUP1 PUSH2 0x20 PUSH1 0x0 CODECOPY PUSH1 0x0 RETURN INVALID PUSH1 0x80 PUSH1 0x40 MSTORE CALLVALUE DUP1 ISZERO PUSH2 0x10 JUMPI PUSH1 0x0 DUP1 REVERT JUMPDEST POP PUSH1 0x4 CALLDATASIZE LT PUSH2 0x4C JUMPI PUSH1 0x0 CALLDATALOAD PUSH1 0xE0 SHR DUP1 PUSH4 0x9518E1E EQ PUSH2 0x51 JUMPI DUP1 PUSH4 0x17FE2DA2 EQ PUSH2 0x81 JUMPI DUP1 PUSH4 0x5DDA416E EQ PUSH2 0xB1 JUMPI DUP1 PUSH4 0x892E5D01 EQ PUSH2 0xE1 JUMPI JUMPDEST PUSH1 0x0 DUP1 REVERT JUMPDEST PUSH2 0x6B PUSH1 0x4 DUP1 CALLDATASIZE SUB DUP2 ADD SWAP1 PUSH2 0x66 SWAP2 SWAP1 PUSH2 0x356 JUMP JUMPDEST PUSH2 0x111 JUMP JUMPDEST PUSH1 0x40 MLOAD PUSH2 0x78 SWAP2 SWAP1 PUSH2 0x553 JUMP JUMPDEST PUSH1 0x40 MLOAD DUP1 SWAP2 SUB SWAP1 RETURN JUMPDEST PUSH2 0x9B PUSH1 0x4 DUP1 CALLDATASIZE SUB DUP2 ADD SWAP1 PUSH2 0x96 SWAP2 SWAP1 PUSH2 0x26F JUMP JUMPDEST PUSH2 0x147 JUMP JUMPDEST PUSH1 0x40 MLOAD PUSH2 0xA8 SWAP2 SWAP1 PUSH2 0x56E JUMP JUMPDEST PUSH1 0x40 MLOAD DUP1 SWAP2 SUB SWAP1 RETURN JUMPDEST PUSH2 0xCB PUSH1 0x4 DUP1 CALLDATASIZE SUB DUP2 ADD SWAP1 PUSH2 0xC6 SWAP2 SWAP1 PUSH2 0x2E7 JUMP JUMPDEST PUSH2 0x173 JUMP JUMPDEST PUSH1 0x40 MLOAD PUSH2 0xD8 SWAP2 SWAP1 PUSH2 0x553 JUMP JUMPDEST PUSH1 0x40 MLOAD DUP1 SWAP2 SUB SWAP1 RETURN JUMPDEST PUSH2 0xFB PUSH1 0x4 DUP1 CALLDATASIZE SUB DUP2 ADD SWAP1 PUSH2 0xF6 SWAP2 SWAP1 PUSH2 0x26F JUMP JUMPDEST PUSH2 0x1A9 JUMP JUMPDEST PUSH1 0x40 MLOAD PUSH2 0x108 SWAP2 SWAP1 PUSH2 0x56E JUMP JUMPDEST PUSH1 0x40 MLOAD DUP1 SWAP2 SUB SWAP1 RETURN JUMPDEST PUSH1 0x0 DUP4 DUP4 DUP4 PUSH1 0x40 MLOAD PUSH1 0x20 ADD PUSH2 0x128 SWAP4 SWAP3 SWAP2 SWAP1 PUSH2 0x51E JUMP JUMPDEST PUSH1 0x40 MLOAD PUSH1 0x20 DUP2 DUP4 SUB SUB DUP2 MSTORE SWAP1 PUSH1 0x40 MSTORE DUP1 MLOAD SWAP1 PUSH1 0x20 ADD KECCAK256 SWAP1 POP SWAP4 SWAP3 POP POP POP JUMP JUMPDEST PUSH1 0x60 DUP3 DUP3 PUSH1 0x40 MLOAD PUSH1 0x20 ADD PUSH2 0x15C SWAP3 SWAP2 SWAP1 PUSH2 0x590 JUMP JUMPDEST PUSH1 0x40 MLOAD PUSH1 0x20 DUP2 DUP4 SUB SUB DUP2 MSTORE SWAP1 PUSH1 0x40 MSTORE SWAP1 POP SWAP3 SWAP2 POP POP JUMP JUMPDEST PUSH1 0x0 DUP4 DUP4 DUP4 PUSH1 0x40 MLOAD PUSH1 0x20 ADD PUSH2 0x18A SWAP4 SWAP3 SWAP2 SWAP1 PUSH2 0x4E5 JUMP JUMPDEST PUSH1 0x40 MLOAD PUSH1 0x20 DUP2 DUP4 SUB SUB DUP2 MSTORE SWAP1 PUSH1 0x40 MSTORE DUP1 MLOAD SWAP1 PUSH1 0x20 ADD KECCAK256 SWAP1 POP SWAP4 SWAP3 POP POP POP JUMP JUMPDEST PUSH1 0x60 DUP3 DUP3 PUSH1 0x40 MLOAD PUSH1 0x20 ADD PUSH2 0x1BE SWAP3 SWAP2 SWAP1 PUSH2 0x4C1 JUMP JUMPDEST PUSH1 0x40 MLOAD PUSH1 0x20 DUP2 DUP4 SUB SUB DUP2 MSTORE SWAP1 PUSH1 0x40 MSTORE SWAP1 POP SWAP3 SWAP2 POP POP JUMP JUMPDEST PUSH1 0x0 PUSH2 0x1E8 PUSH2 0x1E3 DUP5 PUSH2 0x5EC JUMP JUMPDEST PUSH2 0x5C7 JUMP JUMPDEST SWAP1 POP DUP3 DUP2 MSTORE PUSH1 0x20 DUP2 ADD DUP5 DUP5 DUP5 ADD GT ISZERO PUSH2 0x204 JUMPI PUSH2 0x203 PUSH2 0x77B JUMP JUMPDEST JUMPDEST PUSH2 0x20F DUP5 DUP3 DUP6 PUSH2 0x6A6 JUMP JUMPDEST POP SWAP4 SWAP3 POP POP POP JUMP JUMPDEST PUSH1 0x0 DUP2 CALLDATALOAD SWAP1 POP PUSH2 0x226 DUP2 PUSH2 0x7A8 JUMP JUMPDEST SWAP3 SWAP2 POP POP JUMP JUMPDEST PUSH1 0x0 DUP3 PUSH1 0x1F DUP4 ADD SLT PUSH2 0x241 JUMPI PUSH2 0x240 PUSH2 0x776 JUMP JUMPDEST JUMPDEST DUP2 CALLDATALOAD PUSH2 0x251 DUP5 DUP3 PUSH1 0x20 DUP7 ADD PUSH2 0x1D5 JUMP JUMPDEST SWAP2 POP POP SWAP3 SWAP2 POP POP JUMP JUMPDEST PUSH1 0x0 DUP2 CALLDATALOAD SWAP1 POP PUSH2 0x269 DUP2 PUSH2 0x7BF JUMP JUMPDEST SWAP3 SWAP2 POP POP JUMP JUMPDEST PUSH1 0x0 DUP1 PUSH1 0x40 DUP4 DUP6 SUB SLT ISZERO PUSH2 0x286 JUMPI PUSH2 0x285 PUSH2 0x785 JUMP JUMPDEST JUMPDEST PUSH1 0x0 DUP4 ADD CALLDATALOAD PUSH8 0xFFFFFFFFFFFFFFFF DUP2 GT ISZERO PUSH2 0x2A4 JUMPI PUSH2 0x2A3 PUSH2 0x780 JUMP JUMPDEST JUMPDEST PUSH2 0x2B0 DUP6 DUP3 DUP7 ADD PUSH2 0x22C JUMP JUMPDEST SWAP3 POP POP PUSH1 0x20 DUP4 ADD CALLDATALOAD PUSH8 0xFFFFFFFFFFFFFFFF DUP2 GT ISZERO PUSH2 0x2D1 JUMPI PUSH2 0x2D0 PUSH2 0x780 JUMP JUMPDEST JUMPDEST PUSH2 0x2DD DUP6 DUP3 DUP7 ADD PUSH2 0x22C JUMP JUMPDEST SWAP2 POP POP SWAP3 POP SWAP3 SWAP1 POP JUMP JUMPDEST PUSH1 0x0 DUP1 PUSH1 0x0 PUSH1 0x60 DUP5 DUP7 SUB SLT ISZERO PUSH2 0x300 JUMPI PUSH2 0x2FF PUSH2 0x785 JUMP JUMPDEST JUMPDEST PUSH1 0x0 DUP5 ADD CALLDATALOAD PUSH8 0xFFFFFFFFFFFFFFFF DUP2 GT ISZERO PUSH2 0x31E JUMPI PUSH2 0x31D PUSH2 0x780 JUMP JUMPDEST JUMPDEST PUSH2 0x32A DUP7 DUP3 DUP8 ADD PUSH2 0x22C JUMP JUMPDEST SWAP4 POP POP PUSH1 0x20 PUSH2 0x33B DUP7 DUP3 DUP8 ADD PUSH2 0x25A JUMP JUMPDEST SWAP3 POP POP PUSH1 0x40 PUSH2 0x34C DUP7 DUP3 DUP8 ADD PUSH2 0x217 JUMP JUMPDEST SWAP2 POP POP SWAP3 POP SWAP3 POP SWAP3 JUMP JUMPDEST PUSH1 0x0 DUP1 PUSH1 0x0 PUSH1 0x60 DUP5 DUP7 SUB SLT ISZERO PUSH2 0x36F JUMPI PUSH2 0x36E PUSH2 0x785 JUMP JUMPDEST JUMPDEST PUSH1 0x0 DUP5 ADD CALLDATALOAD PUSH8 0xFFFFFFFFFFFFFFFF DUP2 GT ISZERO PUSH2 0x38D JUMPI PUSH2 0x38C PUSH2 0x780 JUMP JUMPDEST JUMPDEST PUSH2 0x399 DUP7 DUP3 DUP8 ADD PUSH2 0x22C JUMP JUMPDEST SWAP4 POP POP PUSH1 0x20 PUSH2 0x3AA DUP7 DUP3 DUP8 ADD PUSH2 0x25A JUMP JUMPDEST SWAP3 POP POP PUSH1 0x40 DUP5 ADD CALLDATALOAD PUSH8 0xFFFFFFFFFFFFFFFF DUP2 GT ISZERO PUSH2 0x3CB JUMPI PUSH2 0x3CA PUSH2 0x780 JUMP JUMPDEST JUMPDEST PUSH2 0x3D7 DUP7 DUP3 DUP8 ADD PUSH2 0x22C JUMP JUMPDEST SWAP2 POP POP SWAP3 POP SWAP3 POP SWAP3 JUMP JUMPDEST PUSH2 0x3F2 PUSH2 0x3ED DUP3 PUSH2 0x660 JUMP JUMPDEST PUSH2 0x719 JUMP JUMPDEST DUP3 MSTORE POP POP JUMP JUMPDEST PUSH2 0x401 DUP2 PUSH2 0x672 JUMP JUMPDEST DUP3 MSTORE POP POP JUMP JUMPDEST PUSH1 0x0 PUSH2 0x412 DUP3 PUSH2 0x61D JUMP JUMPDEST PUSH2 0x41C DUP2 DUP6 PUSH2 0x633 JUMP JUMPDEST SWAP4 POP PUSH2 0x42C DUP2 DUP6 PUSH1 0x20 DUP7 ADD PUSH2 0x6B5 JUMP JUMPDEST PUSH2 0x435 DUP2 PUSH2 0x78A JUMP JUMPDEST DUP5 ADD SWAP2 POP POP SWAP3 SWAP2 POP POP JUMP JUMPDEST PUSH1 0x0 PUSH2 0x44B DUP3 PUSH2 0x628 JUMP JUMPDEST PUSH2 0x455 DUP2 DUP6 PUSH2 0x644 JUMP JUMPDEST SWAP4 POP PUSH2 0x465 DUP2 DUP6 PUSH1 0x20 DUP7 ADD PUSH2 0x6B5 JUMP JUMPDEST PUSH2 0x46E DUP2 PUSH2 0x78A JUMP JUMPDEST DUP5 ADD SWAP2 POP POP SWAP3 SWAP2 POP POP JUMP JUMPDEST PUSH1 0x0 PUSH2 0x484 DUP3 PUSH2 0x628 JUMP JUMPDEST PUSH2 0x48E DUP2 DUP6 PUSH2 0x655 JUMP JUMPDEST SWAP4 POP PUSH2 0x49E DUP2 DUP6 PUSH1 0x20 DUP7 ADD PUSH2 0x6B5 JUMP JUMPDEST DUP1 DUP5 ADD SWAP2 POP POP SWAP3 SWAP2 POP POP JUMP JUMPDEST PUSH2 0x4BB PUSH2 0x4B6 DUP3 PUSH2 0x69C JUMP JUMPDEST PUSH2 0x73D JUMP JUMPDEST DUP3 MSTORE POP POP JUMP JUMPDEST PUSH1 0x0 PUSH2 0x4CD DUP3 DUP6 PUSH2 0x479 JUMP JUMPDEST SWAP2 POP PUSH2 0x4D9 DUP3 DUP5 PUSH2 0x479 JUMP JUMPDEST SWAP2 POP DUP2 SWAP1 POP SWAP4 SWAP3 POP POP POP JUMP JUMPDEST PUSH1 0x0 PUSH2 0x4F1 DUP3 DUP7 PUSH2 0x479 JUMP JUMPDEST SWAP2 POP PUSH2 0x4FD DUP3 DUP6 PUSH2 0x4AA JUMP JUMPDEST PUSH1 0x20 DUP3 ADD SWAP2 POP PUSH2 0x50D DUP3 DUP5 PUSH2 0x3E1 JUMP JUMPDEST PUSH1 0x14 DUP3 ADD SWAP2 POP DUP2 SWAP1 POP SWAP5 SWAP4 POP POP POP POP JUMP JUMPDEST PUSH1 0x0 PUSH2 0x52A DUP3 DUP7 PUSH2 0x479 JUMP JUMPDEST SWAP2 POP PUSH2 0x536 DUP3 DUP6 PUSH2 0x4AA JUMP JUMPDEST PUSH1 0x20 DUP3 ADD SWAP2 POP PUSH2 0x546 DUP3 DUP5 PUSH2 0x479 JUMP JUMPDEST SWAP2 POP DUP2 SWAP1 POP SWAP5 SWAP4 POP POP POP POP JUMP JUMPDEST PUSH1 0x0 PUSH1 0x20 DUP3 ADD SWAP1 POP PUSH2 0x568 PUSH1 0x0 DUP4 ADD DUP5 PUSH2 0x3F8 JUMP JUMPDEST SWAP3 SWAP2 POP POP JUMP JUMPDEST PUSH1 0x0 PUSH1 0x20 DUP3 ADD SWAP1 POP DUP2 DUP2 SUB PUSH1 0x0 DUP4 ADD MSTORE PUSH2 0x588 DUP2 DUP5 PUSH2 0x407 JUMP JUMPDEST SWAP1 POP SWAP3 SWAP2 POP POP JUMP JUMPDEST PUSH1 0x0 PUSH1 0x40 DUP3 ADD SWAP1 POP DUP2 DUP2 SUB PUSH1 0x0 DUP4 ADD MSTORE PUSH2 0x5AA DUP2 DUP6 PUSH2 0x440 JUMP JUMPDEST SWAP1 POP DUP2 DUP2 SUB PUSH1 0x20 DUP4 ADD MSTORE PUSH2 0x5BE DUP2 DUP5 PUSH2 0x440 JUMP JUMPDEST SWAP1 POP SWAP4 SWAP3 POP POP POP JUMP JUMPDEST PUSH1 0x0 PUSH2 0x5D1 PUSH2 0x5E2 JUMP JUMPDEST SWAP1 POP PUSH2 0x5DD DUP3 DUP3 PUSH2 0x6E8 JUMP JUMPDEST SWAP2 SWAP1 POP JUMP JUMPDEST PUSH1 0x0 PUSH1 0x40 MLOAD SWAP1 POP SWAP1 JUMP JUMPDEST PUSH1 0x0 PUSH8 0xFFFFFFFFFFFFFFFF DUP3 GT ISZERO PUSH2 0x607 JUMPI PUSH2 0x606 PUSH2 0x747 JUMP JUMPDEST JUMPDEST PUSH2 0x610 DUP3 PUSH2 0x78A JUMP JUMPDEST SWAP1 POP PUSH1 0x20 DUP2 ADD SWAP1 POP SWAP2 SWAP1 POP JUMP JUMPDEST PUSH1 0x0 DUP2 MLOAD SWAP1 POP SWAP2 SWAP1 POP JUMP JUMPDEST PUSH1 0x0 DUP2 MLOAD SWAP1 POP SWAP2 SWAP1 POP JUMP JUMPDEST PUSH1 0x0 DUP3 DUP3 MSTORE PUSH1 0x20 DUP3 ADD SWAP1 POP SWAP3 SWAP2 POP POP JUMP JUMPDEST PUSH1 0x0 DUP3 DUP3 MSTORE PUSH1 0x20 DUP3 ADD SWAP1 POP SWAP3 SWAP2 POP POP JUMP JUMPDEST PUSH1 0x0 DUP2 SWAP1 POP SWAP3 SWAP2 POP POP JUMP JUMPDEST PUSH1 0x0 PUSH2 0x66B DUP3 PUSH2 0x67C JUMP JUMPDEST SWAP1 POP SWAP2 SWAP1 POP JUMP JUMPDEST PUSH1 0x0 DUP2 SWAP1 POP SWAP2 SWAP1 POP JUMP JUMPDEST PUSH1 0x0 PUSH20 0xFFFFFFFFFFFFFFFFFFFFFFFFFFFFFFFFFFFFFFFF DUP3 AND SWAP1 POP SWAP2 SWAP1 POP JUMP JUMPDEST PUSH1 0x0 DUP2 SWAP1 POP SWAP2 SWAP1 POP JUMP JUMPDEST DUP3 DUP2 DUP4 CALLDATACOPY PUSH1 0x0 DUP4 DUP4 ADD MSTORE POP POP POP JUMP JUMPDEST PUSH1 0x0 JUMPDEST DUP4 DUP2 LT ISZERO PUSH2 0x6D3 JUMPI DUP1 DUP3 ADD MLOAD DUP2 DUP5 ADD MSTORE PUSH1 0x20 DUP2 ADD SWAP1 POP PUSH2 0x6B8 JUMP JUMPDEST DUP4 DUP2 GT ISZERO PUSH2 0x6E2 JUMPI PUSH1 0x0 DUP5 DUP5 ADD MSTORE JUMPDEST POP POP POP POP JUMP JUMPDEST PUSH2 0x6F1 DUP3 PUSH2 0x78A JUMP JUMPDEST DUP2 ADD DUP2 DUP2 LT PUSH8 0xFFFFFFFFFFFFFFFF DUP3 GT OR ISZERO PUSH2 0x710 JUMPI PUSH2 0x70F PUSH2 0x747 JUMP JUMPDEST JUMPDEST DUP1 PUSH1 0x40 MSTORE POP POP POP JUMP JUMPDEST PUSH1 0x0 PUSH2 0x724 DUP3 PUSH2 0x72B JUMP JUMPDEST SWAP1 POP SWAP2 SWAP1 POP JUMP JUMPDEST PUSH1 0x0 PUSH2 0x736 DUP3 PUSH2 0x79B JUMP JUMPDEST SWAP1 POP SWAP2 SWAP1 POP JUMP JUMPDEST PUSH1 0x0 DUP2 SWAP1 POP SWAP2 SWAP1 POP JUMP JUMPDEST PUSH32 0x4E487B7100000000000000000000000000000000000000000000000000000000 PUSH1 0x0 MSTORE PUSH1 0x41 PUSH1 0x4 MSTORE PUSH1 0x24 PUSH1 0x0 REVERT JUMPDEST PUSH1 0x0 DUP1 REVERT JUMPDEST PUSH1 0x0 DUP1 REVERT JUMPDEST PUSH1 0x0 DUP1 REVERT JUMPDEST PUSH1 0x0 DUP1 REVERT JUMPDEST PUSH1 0x0 PUSH1 0x1F NOT PUSH1 0x1F DUP4 ADD AND SWAP1 POP SWAP2 SWAP1 POP JUMP JUMPDEST PUSH1 0x0 DUP2 PUSH1 0x60 SHL SWAP1 POP SWAP2 SWAP1 POP JUMP JUMPDEST PUSH2 0x7B1 DUP2 PUSH2 0x660 JUMP JUMPDEST DUP2 EQ PUSH2 0x7BC JUMPI PUSH1 0x0 DUP1 REVERT JUMPDEST POP JUMP JUMPDEST PUSH2 0x7C8 DUP2 PUSH2 0x69C JUMP JUMPDEST DUP2 EQ PUSH2 0x7D3 JUMPI PUSH1 0x0 DUP1 REVERT JUMPDEST POP JUMP INVALID LOG2 PUSH5 0x6970667358 0x22 SLT KECCAK256 PUSH7 0xD8C2B4CF685124 0xA9 0xD0 0xBE 0xBC 0xA8 0x2B STATICCALL JUMPI SHR 0x2E 0xAD 0x2E DUP5 0xD SWAP7 0xEB PUSH1 0xA8 SWAP6 SWAP9 0xAC POP DUP6 EXTCODESIZE PUSH5 0x736F6C6343 STOP ADDMOD SMOD STOP CALLER "
				},
				"gasEstimates": {
					"creation": {
						"codeDepositCost": "412000",
						"executionCost": "449",
						"totalCost": "412449"
					},
					"external": {
						"collision(string,uint256,string)": "infinite",
						"encode(string,string)": "infinite",
						"encodePacked(string,string)": "infinite",
						"hash(string,uint256,address)": "infinite"
					}
				},
				"methodIdentifiers": {
					"collision(string,uint256,string)": "09518e1e",
					"encode(string,string)": "17fe2da2",
					"encodePacked(string,string)": "892e5d01",
					"hash(string,uint256,address)": "5dda416e"
				}
			},
			"storageLayout": {
				"storage": [],
				"types": null
			},
			"userdoc": {
				"kind": "user",
				"methods": {},
				"version": 1
			}
		}
	}
}